{
  "contractName": "Dare",
  "abi": [
    {
      "inputs": [
        {
          "internalType": "string",
          "name": "",
          "type": "string"
        },
        {
          "internalType": "string",
          "name": "",
          "type": "string"
        },
        {
          "internalType": "uint256",
          "name": "",
          "type": "uint256"
        }
      ],
      "name": "bounties",
      "outputs": [
        {
          "internalType": "address payable",
          "name": "from",
          "type": "address"
        },
        {
          "internalType": "uint256",
          "name": "bounty",
          "type": "uint256"
        }
      ],
      "stateMutability": "view",
      "type": "function",
      "constant": true
    },
    {
      "inputs": [
        {
          "internalType": "string",
          "name": "",
          "type": "string"
        },
        {
          "internalType": "uint256",
          "name": "",
          "type": "uint256"
        }
      ],
      "name": "challenges",
      "outputs": [
        {
          "internalType": "string",
          "name": "",
          "type": "string"
        }
      ],
      "stateMutability": "view",
      "type": "function",
      "constant": true
    },
    {
      "inputs": [
        {
          "internalType": "string",
          "name": "_streamId",
          "type": "string"
        },
        {
          "internalType": "string",
          "name": "_challenge",
          "type": "string"
        }
      ],
      "name": "setChallenge",
      "outputs": [],
      "stateMutability": "payable",
      "type": "function",
      "payable": true
    },
    {
      "inputs": [
        {
          "internalType": "string",
          "name": "_streamId",
          "type": "string"
        }
      ],
      "name": "getChallenges",
      "outputs": [
        {
          "internalType": "string[]",
          "name": "",
          "type": "string[]"
        }
      ],
      "stateMutability": "view",
      "type": "function",
      "constant": true
    },
    {
      "inputs": [
        {
          "internalType": "string",
          "name": "_streamId",
          "type": "string"
        },
        {
          "internalType": "string",
          "name": "_challenge",
          "type": "string"
        }
      ],
      "name": "getTotalBounty",
      "outputs": [
        {
          "internalType": "uint256",
          "name": "",
          "type": "uint256"
        }
      ],
      "stateMutability": "view",
      "type": "function",
      "constant": true
    },
    {
      "inputs": [
        {
          "internalType": "string",
          "name": "_streamId",
          "type": "string"
        }
      ],
      "name": "returnBounties",
      "outputs": [],
      "stateMutability": "nonpayable",
      "type": "function"
    }
  ],
  "bytecode": "0x608060405234801561001057600080fd5b5061120c806100206000396000f3fe6080604052600436106100555760003560e01c806310ed96621461005a578063498ba7611461009857806362d907c8146100d5578063aeef87dd14610112578063e11b1cc41461014f578063e65146a314610178575b600080fd5b34801561006657600080fd5b50610081600480360381019061007c9190610b8c565b610194565b60405161008f929190610de3565b60405180910390f35b3480156100a457600080fd5b506100bf60048036038101906100ba9190610c0b565b61022e565b6040516100cc9190610e2e565b60405180910390f35b3480156100e157600080fd5b506100fc60048036038101906100f79190610b20565b6102fd565b6040516101099190610e70565b60405180910390f35b34801561011e57600080fd5b5061013960048036038101906101349190610adf565b610342565b6040516101469190610e0c565b60405180910390f35b34801561015b57600080fd5b5061017660048036038101906101719190610adf565b610439565b005b610192600480360381019061018d9190610b20565b61074e565b005b6002838051602081018201805184825260208301602085012081835280955050505050508280516020810182018051848252602083016020850120818352809550505050505081815481106101e857600080fd5b906000526020600020906002020160009250925050508060000160009054906101000a900473ffffffffffffffffffffffffffffffffffffffff16908060010154905082565b600182805160208101820180518482526020830160208501208183528095505050505050818154811061026057600080fd5b9060005260206000200160009150915050805461027c90611026565b80601f01602080910402602001604051908101604052809291908181526020018280546102a890611026565b80156102f55780601f106102ca576101008083540402835291602001916102f5565b820191906000526020600020905b8154815290600101906020018083116102d857829003601f168201915b505050505081565b600060038360405161030f9190610dcc565b90815260200160405180910390208260405161032b9190610dcc565b908152602001604051809103902054905092915050565b60606001826040516103549190610dcc565b9081526020016040518091039020805480602002602001604051908101604052809291908181526020016000905b8282101561042e5783829060005260206000200180546103a190611026565b80601f01602080910402602001604051908101604052809291908181526020018280546103cd90611026565b801561041a5780601f106103ef5761010080835404028352916020019161041a565b820191906000526020600020905b8154815290600101906020018083116103fd57829003601f168201915b505050505081526020019060010190610382565b505050509050919050565b60005b60018260405161044c9190610dcc565b90815260200160405180910390208054905081101561074a5760006001836040516104779190610dcc565b908152602001604051809103902082815481106104bd577f4e487b7100000000000000000000000000000000000000000000000000000000600052603260045260246000fd5b9060005260206000200180546104d290611026565b80601f01602080910402602001604051908101604052809291908181526020018280546104fe90611026565b801561054b5780601f106105205761010080835404028352916020019161054b565b820191906000526020600020905b81548152906001019060200180831161052e57829003601f168201915b5050505050905060006002846040516105649190610dcc565b9081526020016040518091039020826040516105809190610dcc565b9081526020016040518091039020805480602002602001604051908101604052809291908181526020016000905b8282101561064057838290600052602060002090600202016040518060400160405290816000820160009054906101000a900473ffffffffffffffffffffffffffffffffffffffff1673ffffffffffffffffffffffffffffffffffffffff1673ffffffffffffffffffffffffffffffffffffffff168152602001600182015481525050815260200190600101906105ae565b50505050905060005b81518110156107345781848151811061068b577f4e487b7100000000000000000000000000000000000000000000000000000000600052603260045260246000fd5b60200260200101516000015173ffffffffffffffffffffffffffffffffffffffff166108fc8383815181106106e9577f4e487b7100000000000000000000000000000000000000000000000000000000600052603260045260246000fd5b6020026020010151602001519081150290604051600060405180830381858888f19350505050158015610720573d6000803e3d6000fd5b50808061072c90611089565b915050610649565b505050808061074290611089565b91505061043c565b5050565b60003411610791576040517f08c379a000000000000000000000000000000000000000000000000000000000815260040161078890610e50565b60405180910390fd5b6000826040516107a19190610dcc565b9081526020016040518091039020816040516107bd9190610dcc565b908152602001604051809103902060009054906101000a900460ff16610889576001826040516107ed9190610dcc565b9081526020016040518091039020819080600181540180825580915050600190039060005260206000200160009091909190915090805190602001906108349291906109bf565b5060016000836040516108479190610dcc565b9081526020016040518091039020826040516108639190610dcc565b908152602001604051809103902060006101000a81548160ff0219169083151502179055505b6002826040516108999190610dcc565b9081526020016040518091039020816040516108b59190610dcc565b908152602001604051809103902060405180604001604052803373ffffffffffffffffffffffffffffffffffffffff16815260200134815250908060018154018082558091505060019003906000526020600020906002020160009091909190915060008201518160000160006101000a81548173ffffffffffffffffffffffffffffffffffffffff021916908373ffffffffffffffffffffffffffffffffffffffff1602179055506020820151816001015550503460038360405161097b9190610dcc565b9081526020016040518091039020826040516109979190610dcc565b908152602001604051809103902060008282546109b49190610f52565b925050819055505050565b8280546109cb90611026565b90600052602060002090601f0160209004810192826109ed5760008555610a34565b82601f10610a0657805160ff1916838001178555610a34565b82800160010185558215610a34579182015b82811115610a33578251825591602001919060010190610a18565b5b509050610a419190610a45565b5090565b5b80821115610a5e576000816000905550600101610a46565b5090565b6000610a75610a7084610eb0565b610e8b565b905082815260208101848484011115610a8d57600080fd5b610a98848285610fe4565b509392505050565b600082601f830112610ab157600080fd5b8135610ac1848260208601610a62565b91505092915050565b600081359050610ad9816111bf565b92915050565b600060208284031215610af157600080fd5b600082013567ffffffffffffffff811115610b0b57600080fd5b610b1784828501610aa0565b91505092915050565b60008060408385031215610b3357600080fd5b600083013567ffffffffffffffff811115610b4d57600080fd5b610b5985828601610aa0565b925050602083013567ffffffffffffffff811115610b7657600080fd5b610b8285828601610aa0565b9150509250929050565b600080600060608486031215610ba157600080fd5b600084013567ffffffffffffffff811115610bbb57600080fd5b610bc786828701610aa0565b935050602084013567ffffffffffffffff811115610be457600080fd5b610bf086828701610aa0565b9250506040610c0186828701610aca565b9150509250925092565b60008060408385031215610c1e57600080fd5b600083013567ffffffffffffffff811115610c3857600080fd5b610c4485828601610aa0565b9250506020610c5585828601610aca565b9150509250929050565b6000610c6b8383610cf7565b905092915050565b610c7c81610fa8565b82525050565b6000610c8d82610ef1565b610c978185610f14565b935083602082028501610ca985610ee1565b8060005b85811015610ce55784840389528151610cc68582610c5f565b9450610cd183610f07565b925060208a01995050600181019050610cad565b50829750879550505050505092915050565b6000610d0282610efc565b610d0c8185610f25565b9350610d1c818560208601610ff3565b610d258161115f565b840191505092915050565b6000610d3b82610efc565b610d458185610f36565b9350610d55818560208601610ff3565b610d5e8161115f565b840191505092915050565b6000610d7482610efc565b610d7e8185610f47565b9350610d8e818560208601610ff3565b80840191505092915050565b6000610da7602483610f36565b9150610db282611170565b604082019050919050565b610dc681610fda565b82525050565b6000610dd88284610d69565b915081905092915050565b6000604082019050610df86000830185610c73565b610e056020830184610dbd565b9392505050565b60006020820190508181036000830152610e268184610c82565b905092915050565b60006020820190508181036000830152610e488184610d30565b905092915050565b60006020820190508181036000830152610e6981610d9a565b9050919050565b6000602082019050610e856000830184610dbd565b92915050565b6000610e95610ea6565b9050610ea18282611058565b919050565b6000604051905090565b600067ffffffffffffffff821115610ecb57610eca611130565b5b610ed48261115f565b9050602081019050919050565b6000819050602082019050919050565b600081519050919050565b600081519050919050565b6000602082019050919050565b600082825260208201905092915050565b600082825260208201905092915050565b600082825260208201905092915050565b600081905092915050565b6000610f5d82610fda565b9150610f6883610fda565b9250827fffffffffffffffffffffffffffffffffffffffffffffffffffffffffffffffff03821115610f9d57610f9c6110d2565b5b828201905092915050565b6000610fb382610fba565b9050919050565b600073ffffffffffffffffffffffffffffffffffffffff82169050919050565b6000819050919050565b82818337600083830152505050565b60005b83811015611011578082015181840152602081019050610ff6565b83811115611020576000848401525b50505050565b6000600282049050600182168061103e57607f821691505b6020821081141561105257611051611101565b5b50919050565b6110618261115f565b810181811067ffffffffffffffff821117156110805761107f611130565b5b80604052505050565b600061109482610fda565b91507fffffffffffffffffffffffffffffffffffffffffffffffffffffffffffffffff8214156110c7576110c66110d2565b5b600182019050919050565b7f4e487b7100000000000000000000000000000000000000000000000000000000600052601160045260246000fd5b7f4e487b7100000000000000000000000000000000000000000000000000000000600052602260045260246000fd5b7f4e487b7100000000000000000000000000000000000000000000000000000000600052604160045260246000fd5b6000601f19601f8301169050919050565b7f43616e6e6f7420736574206368616c6c656e676520776974686f75742061207660008201527f616c756500000000000000000000000000000000000000000000000000000000602082015250565b6111c881610fda565b81146111d357600080fd5b5056fea264697066735822122023f00878f014e9f300cf84f9e52a0c243ba1bf1b45f04e08110bcbbf954da5c064736f6c63430008040033",
  "immutableReferences": {},
  "source": "// SPDX-License-Identifier: MIT\npragma solidity 0.8.4;\npragma abicoder v2;\n\ncontract Dare {\n\n    struct Bounty {\n        address payable from;\n        uint bounty;\n    }\n\n    // Check if challenge exists\n    mapping (string => mapping (string => bool)) hasChallenge; \n\n    // List all the challenges available for the stream\n    mapping (string => string[]) public challenges;\n\n    // List all the bounties available for each challenge\n    mapping (string => mapping(string => Bounty[])) public bounties;\n\n    // How much total value of bounty per challenge\n    mapping (string => mapping(string => uint)) challengeAmount;\n\n\n    function setChallenge(string memory _streamId, string memory _challenge) external payable {\n        require (msg.value > 0, \"Cannot set challenge without a value\");\n        \n        if (!hasChallenge[_streamId][_challenge]) {\n            // Challenge doesn't exist. Create new challenge.\n            challenges[_streamId].push(_challenge);                        \n            hasChallenge[_streamId][_challenge] = true;\n        } \n\n        bounties[_streamId][_challenge].push(\n            Bounty(payable(msg.sender), msg.value)\n        );\n        \n        challengeAmount[_streamId][_challenge] += msg.value;\n    }\n\n    function getChallenges(string memory _streamId) external view returns(string[] memory) {\n        return challenges[_streamId];\n    }\n\n    function getTotalBounty(string memory _streamId, string memory _challenge) external view returns (uint) {\n        return challengeAmount[_streamId][_challenge];\n    }\n\n    function returnBounties(string memory _streamId) external {\n        for (uint i = 0; i < challenges[_streamId].length; i++) {\n            string memory challenge = challenges[_streamId][i];\n            Bounty[] memory bountyList = bounties[_streamId][challenge];\n            for (uint j = 0; j < bountyList.length; j++) {\n                bountyList[i].from.transfer(bountyList[j].bounty);\n            }\n        }\n    }     \n}\n",
  "sourcePath": "/home/dougy/Code/Crypto/Projects/Dare/Dare/contracts/Dare.sol",
  "compiler": {
    "name": "solc",
    "version": "0.8.4+commit.c7e474f2.Emscripten.clang"
  },
  "schemaVersion": "3.3.3",
  "updatedAt": "2021-05-30T06:04:42.559Z",
  "networkType": "ethereum",
  "devdoc": {
    "kind": "dev",
    "methods": {},
    "version": 1
  },
  "userdoc": {
    "kind": "user",
    "methods": {},
    "version": 1
  }
}